S01800004E6F6E20426C6F636B696E67204C43442E73726563A5
S11300000C9434000C9451000C9451000C94510045
S11300100C9451000C94FA020C9451000C9451006D
S11300200C9451000C9451000C9451000C94D50282
S11300300C9451000C9451000C9451000C945100F8
S11300400C9451000C9451000C9451000C945100E8
S11300500C945100DE00E800150132014F016C01DF
S11300608901A601C301DF0111241FBECFE5D8E039
S1130070DEBFCDBF10E0A0E6B0E0E4E6FAE002C0E7
S113008005900D92AC36B107D9F720E0ACE6B0E0AC
S113009001C01D92A338B207E1F70E9453020C94E9
S11300A030050C94000090917200992319F091305E
S11300B0E1F174C01092710090917000911108C028
S11300C09BB39F70807F892B8BBB81E080937000F2
S11300D061E080E00E94BC0263E080E00E9478025C
S11300E080916F0081110EC08AE090E00E945A0353
S11300F0811108C081E080936F0063E080E00E947A
S1130100BC024CC080916F00882309F447C08AE088
S113011090E00E945A03811141C081E080937200F3
S113012010926F001092700039C09091700091117C
S11301300CC02BB330E1839FC0011124922F9F7018
S1130140892B8BBB81E08093700063E080E00E9488
S1130150780280916F0081110EC08AE090E00E94C5
S11301605A03811108C081E080936F0063E080E04E
S11301700E94BC0213C080916F00882379F08AE04A
S113018090E00E945A03811109C0109272001092EB
S11301906F001092700081E0809371008091710073
S11301A00895E09175008E2F90E08A30910508F053
S11301B021C1FC01E65DFF4F0C942A0584E690E022
S11301C00E945A03811116C181E08093750012C107
S11301D041E061E080E00E94900241E062E080E062
S11301E00E94900241E063E080E00E94900241E0BE
S11301F064E080E00E94900241E065E080E00E94BB
S1130200900241E066E080E00E94900241E067E0F5
S113021080E00E94900284E690E00E945A038111DB
S1130220E9C082E080937500E5C08091740081117B
S113023008C083E00E945300813019F48093740055
S1130240D9C080917400882309F4D4C08AE090E076
S11302500E945A038111CEC083E0809375001092EE
S11302607400C8C080917400811108C083E00E94AA
S11302705300813019F480937400BCC080917400E1
S1130280882309F4B7C08AE090E00E945A038111E0
S1130290B1C084E08093750010927400ABC080916B
S11302A07400811108C083E00E945300813019F466
S11302B0809374009FC080917400882309F49AC0CD
S11302C08AE090E00E945A03811194C085E08093F3
S11302D07500109274008EC080917400811108C062
S11302E082E00E945300813019F48093740082C02C
S11302F080917400882309F47DC08AE090E00E9414
S11303005A03811177C086E08093750010927400BF
S113031071C080917400811108C088E00E9453006C
S1130320813019F48093740065C08091740088232F
S113033009F460C08AE090E00E945A0381115AC017
S113034087E0809375001092740054C0809174000B
S1130350811108C081E00E945300813019F4809318
S1130360740048C080917400882309F443C08AE073
S113037090E00E945A0381113DC088E0809375008B
S11303801092740037C080917400811108C086E017
S11303900E945300813019F4809374002BC0809123
S11303A07400882339F18AE090E00E945A03811195
S11303B021C089E080937500109274001BC0809165
S11303C07400811108C08CE00E945300813019F43C
S11303D0809374000FC080917400882359F08AE0E0
S11303E090E00E945A03811105C081E0809373005C
S11303F01092740080917300089590916E00913072
S113040029F110926D0090916C00913041F09BB3F2
S11304109F70807F892B8BBB81E080936C0061E0AF
S113042080E00E94780263E080E00E9478028AE023
S113043090E00E945A0381112FC063E00E94BC0225
S113044081E080936E0010926C0026C0913021F5FB
S113045090916C00913061F02BB330E1839FC00127
S11304601124922F9F70892B8BBB81E080936C00A9
S113047063E080E00E9478028AE090E00E945A03E0
S113048081110AC063E00E94BC0210926E001092B7
S11304906C0081E080936D0080916D00089541E0CF
S11304A00E949002089564E070E083E090E00E946E
S11304B04F02C0E001C0C1E0C11104C00E94D100DC
S11304C08130C9F3CC23C1F3E0917600F0E0EF5919
S11304D0FF4F80810E94FD01813029F480917600D4
S11304E08F5F8093760080917600883029F7FFCF64
S11304F08A3090F4EBE3F0E0E81BF109683070F423
S113050081E090E002C0880F991F6A95E2F790811C
S1130510892B808384E0089582E0089581E0089522
S11305208A3020F52AE330E0F901E81BF10968304C
S1130530F8F4413061F481E090E002C0880F991F23
S11305406A95E2F79081892B808384E008954111B4
S113055011C081E090E002C0880F991F6A95E2F70C
S1130560809590818923808384E0089582E00895B2
S113057081E0089583E008958A3098F4EBE3F0E095
S1130580E81BF109683078F481E090E002C0880F3C
S1130590991F6A95E2F7809590818923808384E08E
S11305A0089582E0089581E008951F920F920FB696
S11305B00F9211248F939F93AF93BF9380917F00E9
S11305C090918000A0918100B09182000196A11DBC
S11305D0B11D80937F0090938000A0938100B0931D
S11305E08200BF91AF919F918F910F900FBE0F909A
S11305F01F9018951F920F920FB60F9211248F938C
S11306009F93AF93BF9380917B0090917C00A091C6
S11306107D00B0917E000196A11DB11D80937B00E9
S113062090937C00A0937D00B0937E00BF91AF9126
S11306309F918F910F900FBE0F901F90189589B7BF
S1130640816089BF8FB780688FBF0895813091051D
S113065021F483B7816083BF08958830910521F424
S113066083B7826083BF08958032910521F483B7F4
S1130670836083BF08958034910521F483B7846037
S113068083BF08958038910521F483B7856083BFC3
S11306900895811521E0920721F483B7866083BF12
S11306A008958430944019F483B7876083BF089514
S11306B013BE0895CF93BC0190916000933031F53F
S11306C080E090E00E944F042FE632E143E85AE3D1
S11306D00E94AE0320E030E04FE753E40E94AE03F3
S11306E00E94DD040E9420046093770070937800D8
S11306F08093790090937A000E941F0388E090E031
S11307000E94260382E08093600025C040917F0010
S113071050918000609181007091820080917700F7
S113072090917800A0917900B0917A004817590708
S11307306A077B0779F40E94580383E08093600082
S113074010927F001092800010928100109282001B
S1130750C0E001C0C1E08C2FCF9108950E94C20374
S11307600C94A3040E949C0458F00E94950440F049
S113077029F45F3F29F00C948C0451110C94D70494
S11307800C9492040E94B40468F39923B1F35523A2
S113079091F3951B550BBB27AA2762177307840790
S11307A038F09F5F5F4F220F331F441FAA1FA9F326
S11307B035D00E2E3AF0E0E832D091505040E69514
S11307C0001CCAF72BD0FE2F29D0660F771F881F75
S11307D0BB1F261737074807AB07B0E809F0BB0B68
S11307E0802DBF01FF2793585F4F3AF09E3F51057C
S11307F078F00C948C040C94D7045F3FE4F3983E97
S1130800D4F3869577956795B795F7959F5FC9F764
S1130810880F911D9695879597F90895E1E0660FE5
S1130820771F881FBB1F621773078407BA0720F05E
S1130830621B730B840BBA0BEE1F88F7E0950895C7
S11308400E94BC0488F09F5798F0B92F9927B7519C
S1130850B0F0E1F0660F771F881F991F1AF0BA9560
S1130860C9F714C0B13091F00E94D604B1E00895E4
S11308700C94D604672F782F8827B85F39F0B93FD6
S1130880CCF3869577956795B395D9F73EF4909513
S11308908095709561957F4F8F4F9F4F0895E89491
S11308A009C097FB3EF490958095709561957F4FB4
S11308B08F4F9F4F9923A9F0F92F96E9BB27939562
S11308C0F695879577956795B795F111F8CFFAF472
S11308D0BB0F11F460FF1BC06F5F7F4F8F4F9F4FA3
S11308E016C0882311F096E911C0772321F09EE801
S11308F0872F762F05C0662371F096E8862F70E067
S113090060E02AF09A95660F771F881FDAF7880F40
S11309109695879597F9089597F99F6780E870E011
S113092060E008959FEF80EC089500240A94161661
S1130930170618060906089500240A9412161306C9
S1130940140605060895092E0394000C11F4882357
S113095052F0BB0F40F4BF2B11F460FF04C06F5F73
S11309607F4F8F4F9F4F089557FD9058440F551F49
S113097059F05F3F71F04795880F97FB991F61F01D
S11309809F3F79F087950895121613061406551F94
S1130990F2CF4695F1DF08C0161617061806991F00
S11309A0F1CF86957105610508940895E894BB27F5
S11309B066277727CB0197F908950E94BC04E8F0D5
S11309C09E37E8F09639B8F49E3848F4672F782FAC
S11309D08827985FF9CF869577956795939595398C
S11309E0D0F3B62FB1706B0F711D811D20F4879564
S11309F07795679593950C9401050C941C050C94BC
S1130A00D704882371F4772321F09850872B762F0D
S1130A1007C0662311F499270DC09051862B70E00E
S1130A2060E02AF09A95660F771F881FDAF7880F1F
S1130A309695879597F908959F3F31F0915020F44A
S1130A40879577956795B795880F911D96958795A6
S1130A5097F90895EE0FFF1F0590F491E02D099486
S1070A60F894FFCF34
S10F0A64033132333435363738390000A2
S9030000FC
